{
  "contractName": "ETHPool",
  "abi": [
    {
      "inputs": [],
      "stateMutability": "nonpayable",
      "type": "constructor"
    },
    {
      "anonymous": false,
      "inputs": [
        {
          "indexed": true,
          "internalType": "address",
          "name": "previousOwner",
          "type": "address"
        },
        {
          "indexed": true,
          "internalType": "address",
          "name": "newOwner",
          "type": "address"
        }
      ],
      "name": "OwnershipTransferred",
      "type": "event"
    },
    {
      "inputs": [],
      "name": "depositedUserCount",
      "outputs": [
        {
          "internalType": "uint256",
          "name": "_value",
          "type": "uint256"
        }
      ],
      "stateMutability": "view",
      "type": "function",
      "constant": true
    },
    {
      "inputs": [
        {
          "internalType": "uint256",
          "name": "",
          "type": "uint256"
        }
      ],
      "name": "depositedUsers",
      "outputs": [
        {
          "internalType": "address",
          "name": "",
          "type": "address"
        }
      ],
      "stateMutability": "view",
      "type": "function",
      "constant": true
    },
    {
      "inputs": [],
      "name": "owner",
      "outputs": [
        {
          "internalType": "address",
          "name": "",
          "type": "address"
        }
      ],
      "stateMutability": "view",
      "type": "function",
      "constant": true
    },
    {
      "inputs": [],
      "name": "renounceOwnership",
      "outputs": [],
      "stateMutability": "nonpayable",
      "type": "function"
    },
    {
      "inputs": [],
      "name": "totalDeposited",
      "outputs": [
        {
          "internalType": "uint256",
          "name": "",
          "type": "uint256"
        }
      ],
      "stateMutability": "view",
      "type": "function",
      "constant": true
    },
    {
      "inputs": [
        {
          "internalType": "address",
          "name": "newOwner",
          "type": "address"
        }
      ],
      "name": "transferOwnership",
      "outputs": [],
      "stateMutability": "nonpayable",
      "type": "function"
    },
    {
      "inputs": [
        {
          "internalType": "address",
          "name": "",
          "type": "address"
        }
      ],
      "name": "userInfo",
      "outputs": [
        {
          "internalType": "bool",
          "name": "isDeposited",
          "type": "bool"
        },
        {
          "internalType": "bool",
          "name": "isWithdrawed",
          "type": "bool"
        },
        {
          "internalType": "uint256",
          "name": "depositedAmount",
          "type": "uint256"
        },
        {
          "internalType": "uint256",
          "name": "rewardAmount",
          "type": "uint256"
        }
      ],
      "stateMutability": "view",
      "type": "function",
      "constant": true
    },
    {
      "inputs": [],
      "name": "depositETH",
      "outputs": [],
      "stateMutability": "payable",
      "type": "function",
      "payable": true
    },
    {
      "inputs": [],
      "name": "depositReward",
      "outputs": [],
      "stateMutability": "payable",
      "type": "function",
      "payable": true
    },
    {
      "inputs": [],
      "name": "withdraw",
      "outputs": [],
      "stateMutability": "payable",
      "type": "function",
      "payable": true
    },
    {
      "inputs": [],
      "name": "getBalance",
      "outputs": [
        {
          "internalType": "uint256",
          "name": "",
          "type": "uint256"
        }
      ],
      "stateMutability": "view",
      "type": "function",
      "constant": true
    },
    {
      "inputs": [],
      "name": "getBalanceOfUser",
      "outputs": [
        {
          "internalType": "uint256",
          "name": "",
          "type": "uint256"
        }
      ],
      "stateMutability": "view",
      "type": "function",
      "constant": true
    }
  ],
  "bytecode": "0x608060405234801561001057600080fd5b50600160005561003861002a64010000000061003d810204565b640100000000610041810204565b610093565b3390565b60018054600160a060020a03838116600160a060020a0319831681179093556040519116919082907f8be0079c531659141344cd1fd0a4f28419497f9722a3daafe3b4186f6b6457e090600090a35050565b610983806100a26000396000f3fe6080604052600436106100c4576000357c0100000000000000000000000000000000000000000000000000000000900480637777df7e116100815780637777df7e146101cb57806379982de4146101e25780638da5cb5b146101f6578063f2fde38b14610214578063f6326fb314610234578063ff50abdc1461023c57600080fd5b806312065fe0146100c95780631959a002146100ec5780633ccfd60b146101565780635c817789146101605780635ec2dc8d146101ae578063715018a6146101b6575b600080fd5b3480156100d557600080fd5b5030315b6040519081526020015b60405180910390f35b3480156100f857600080fd5b50610134610107366004610801565b60036020526000908152604090208054600182015460029092015460ff8083169361010090930416919084565b60408051941515855292151560208501529183015260608201526080016100e3565b61015e610252565b005b34801561016c57600080fd5b5061019661017b36600461082f565b600460205260009081526040902054600160a060020a031681565b604051600160a060020a0390911681526020016100e3565b61015e610313565b3480156101c257600080fd5b5061015e6104f0565b3480156101d757600080fd5b506005546100d99081565b3480156101ee57600080fd5b5033316100d9565b34801561020257600080fd5b50600154600160a060020a0316610196565b34801561022057600080fd5b5061015e61022f366004610801565b610529565b61015e6105de565b34801561024857600080fd5b506100d960025481565b3360009081526003602052604090205460ff168015610286575033600090815260036020526040902054610100900460ff16155b61028f57600080fd5b336000908152600360205260408120600281015460018201549192916102b5919061087c565b604051909150339082156108fc029083906000818181858888f193505050501580156102e5573d6000803e3d6000fd5b50815461ff00191661010017825560018201546002805460009061030a9084906108ec565b90915550505050565b600154600160a060020a031633146103495760405160e560020a62461bcd02815260040161034090610847565b60405180910390fd5b346103995760405160e560020a62461bcd02815260206004820152601f60248201527f416d6f756e74206f66205265776172642063616e2774206265207a65726f21006044820152606401610340565b6005546104115760405160e560020a62461bcd02815260206004820152602660248201527f5468657265206973206e6f20757365722077686f206465706f7369746520746f60448201527f20706f6f6c2100000000000000000000000000000000000000000000000000006064820152608401610340565b60005b6005548110156104ed57600081815260046020908152604080832054600160a060020a03168352600390915290205460ff16801561047c5750600081815260046020908152604080832054600160a060020a031683526003909152902054610100900460ff16155b156104db57600081815260046020908152604080832054600160a060020a031683526003909152902060025460018201546104b790346108cd565b6104c19190610894565b8160020160008282546104d4919061087c565b9091555050505b806104e581610903565b915050610414565b50565b600154600160a060020a0316331461051d5760405160e560020a62461bcd02815260040161034090610847565b61052760006107a2565b565b600154600160a060020a031633146105565760405160e560020a62461bcd02815260040161034090610847565b600160a060020a0381166105d55760405160e560020a62461bcd02815260206004820152602660248201527f4f776e61626c653a206e6577206f776e657220697320746865207a65726f206160448201527f64647265737300000000000000000000000000000000000000000000000000006064820152608401610340565b6104ed816107a2565b3461062e5760405160e560020a62461bcd02815260206004820181905260248201527f416d6f756e74206f66204465706f7369742063616e2774206265207a65726f216044820152606401610340565b3360009081526003602052604090205460ff16158015610663575033600090815260036020526040902054610100900460ff16155b6106d85760405160e560020a62461bcd02815260206004820152603e60248201527f5573657220616c7265616479206465706f736974207468652045544820746f2060448201527f706f6f6c206f72207573657220616c72656164792077697468647261772100006064820152608401610340565b604080516080810182526001808252600060208084018281523485870181815260608701858152338652600390945296842095518654925161ffff1990931690151561ff00191617610100921515929092029190911785559451928401929092559051600292830155815461074e90849061087c565b909155503390506004600061076260055490565b815260200190815260200160002060006101000a815481600160a060020a030219169083600160a060020a03160217905550610527600580546001019055565b60018054600160a060020a0383811673ffffffffffffffffffffffffffffffffffffffff19831681179093556040519116919082907f8be0079c531659141344cd1fd0a4f28419497f9722a3daafe3b4186f6b6457e090600090a35050565b600060208284031215610812578081fd5b8135600160a060020a0381168114610828578182fd5b9392505050565b600060208284031215610840578081fd5b5035919050565b6020808252818101527f4f776e61626c653a2063616c6c6572206973206e6f7420746865206f776e6572604082015260600190565b6000821982111561088f5761088f61091e565b500190565b6000826108c8577f4e487b710000000000000000000000000000000000000000000000000000000081526012600452602481fd5b500490565b60008160001904831182151516156108e7576108e761091e565b500290565b6000828210156108fe576108fe61091e565b500390565b60006000198214156109175761091761091e565b5060010190565b7f4e487b7100000000000000000000000000000000000000000000000000000000600052601160045260246000fdfea2646970667358221220a1a5a86227a647463d6b2f996c3f356d29331fd5e1073e275c9f531ff3c3857d64736f6c63430008040033",
  "immutableReferences": {},
  "source": "// SPDX-License-Identifier: MIT\r\npragma solidity ^0.8.4;\r\nimport \"@openzeppelin/contracts/utils/Counters.sol\";\r\nimport \"@openzeppelin/contracts/security/ReentrancyGuard.sol\";\r\nimport \"@openzeppelin/contracts/access/Ownable.sol\";\r\n\r\ncontract ETHPool is ReentrancyGuard, Ownable {\r\n    using Counters for Counters.Counter;\r\n\r\n    struct UserInfo {\r\n        bool isDeposited; // The status of user deoposited or not\r\n        bool isWithdrawed; // The status of user withdrawed or not\r\n        uint256 depositedAmount; // The amount of deposited ETH per user\r\n        uint256 rewardAmount; // The amount of Reward for user account\r\n    }\r\n\r\n    uint256 public totalDeposited;\r\n    mapping(address => UserInfo) public userInfo;\r\n    mapping(uint256 => address) public depositedUsers;\r\n\r\n    Counters.Counter public depositedUserCount;\r\n\r\n    constructor() {}\r\n\r\n    function depositETH() public payable {\r\n        require(msg.value != 0, \"Amount of Deposit can't be zero!\");\r\n        require(\r\n            !userInfo[msg.sender].isDeposited &&\r\n                !userInfo[msg.sender].isWithdrawed,\r\n            \"User already deposit the ETH to pool or user already withdraw!\"\r\n        );\r\n\r\n        userInfo[msg.sender] = UserInfo(true, false, msg.value, 0);\r\n        totalDeposited += msg.value;\r\n        depositedUsers[depositedUserCount.current()] = msg.sender;\r\n        depositedUserCount.increment();\r\n    }\r\n\r\n    function depositReward() public payable onlyOwner {\r\n        require(msg.value != 0, \"Amount of Reward can't be zero!\");\r\n        require(\r\n            depositedUserCount.current() != 0,\r\n            \"There is no user who deposite to pool!\"\r\n        );\r\n        for (uint256 i = 0; i < depositedUserCount.current(); i++) {\r\n            if (\r\n                userInfo[depositedUsers[i]].isDeposited &&\r\n                !userInfo[depositedUsers[i]].isWithdrawed\r\n            ) {\r\n                UserInfo storage _userInfo = userInfo[depositedUsers[i]];\r\n                _userInfo.rewardAmount +=\r\n                    (msg.value * _userInfo.depositedAmount) /\r\n                    totalDeposited;\r\n            }\r\n        }\r\n    }\r\n\r\n    function withdraw() external payable {\r\n        require(\r\n            userInfo[msg.sender].isDeposited &&\r\n                !userInfo[msg.sender].isWithdrawed\r\n        );\r\n        UserInfo storage _userInfo = userInfo[msg.sender];\r\n        uint256 amount = _userInfo.depositedAmount + _userInfo.rewardAmount;\r\n        payable(msg.sender).transfer(amount);\r\n        _userInfo.isWithdrawed = true;\r\n        totalDeposited -= _userInfo.depositedAmount;\r\n    }\r\n\r\n    function getBalance() public view returns (uint256) {\r\n        return address(this).balance;\r\n    }\r\n\r\n    function getBalanceOfUser() public view returns (uint256) {\r\n        return msg.sender.balance;\r\n    }\r\n}\r\n",
  "sourcePath": "E:\\Git for Project\\Ethereum\\ETHPool_Test\\contracts\\ETHPool.sol",
  "compiler": {
    "name": "solc",
    "version": "0.8.4+commit.c7e474f2.Emscripten.clang"
  },
  "schemaVersion": "3.4.5",
  "updatedAt": "2022-03-11T18:30:34.966Z",
  "networkType": "ethereum",
  "devdoc": {
    "kind": "dev",
    "methods": {
      "owner()": {
        "details": "Returns the address of the current owner."
      },
      "renounceOwnership()": {
        "details": "Leaves the contract without owner. It will not be possible to call `onlyOwner` functions anymore. Can only be called by the current owner. NOTE: Renouncing ownership will leave the contract without an owner, thereby removing any functionality that is only available to the owner."
      },
      "transferOwnership(address)": {
        "details": "Transfers ownership of the contract to a new account (`newOwner`). Can only be called by the current owner."
      }
    },
    "version": 1
  },
  "userdoc": {
    "kind": "user",
    "methods": {},
    "version": 1
  }
}